:100000000080002099420000C5420000C542000067
:10001000C5420000C5420000C5420000C5420000C4
:10002000C5420000C5420000C5420000C5420000B4
:10003000C5420000C5420000C5420000110A000090
:10004000C5420000C5420000C5420000C542000094
:10005000C5420000C5420000C5420000C542000084
:10006000C54200008103000001350000C5420000C8
:10007000C5420000C5420000C5420000C542000064
:10008000C54200008D030000C5420000C5420000CB
:10009000C5420000C5420000C5420000C542000044
:1000A000C5420000C5420000C5420000C542000034
:1000B000C5420000C5420000C5420000C542000024
:1000C000C5420000C542000010B5054C237833B985
:1000D000044B13B10448AFF300800123237010BD1B
:1000E000A4000020000000001070000008B5064BBE
:1000F0001BB106480649AFF300800648036813B1F8
:10010000054B03B1984708BD0000000010700000C7
:10011000A8000020A000002000000000154B002BCC
:1001200008BF134B9D46A3F5803A00218B460F462E
:100130001348144A121A04F004FF0F4B002B00D08E
:1001400098470E4B002B00D0984700200021040058
:100150000D000D48002802D00C48AFF3008004F0D9
:10016000C1FE2000290000F059FC04F0A7FE00BFEA
:1001700000000800008000200000000000000000D7
:10018000A4000020B80900200000000000000000CA
:1001900080B483B000AF0346FB71084B97F907208A
:1001A0005209F97901F01F01012000FA01F143F829
:1001B00022100C37BD465DF8047B704700E100E07B
:1001C00080B483B000AF0346FB71094B97F9072059
:1001D0005209F97901F01F01012000FA01F16032A2
:1001E00043F822100C37BD465DF8047B704700BF12
:1001F00000E100E080B400AF054B054A126922F02F
:1002000004021A6130BFBD465DF8047B704700BF31
:1002100000ED00E080B483B000AF7860044B7A68F2
:10022000C3F824240C37BD465DF8047B704700BF3B
:1002300000A0004080B400AF034BD3F81C34184634
:10024000BD465DF8047B704700A0004080B500AF5C
:100250001A4B1B7883F00103DBB2002B00D02BE09C
:10026000174B1B685A1C164B1A60154B1B68052B45
:1002700004D1134B00221A6003F0D4F9114B1B6810
:100280005A1C104B1A600F4B1B68142B0AD10D4BD4
:1002900000221A600C4B1B78DAB20C4B1A700C4B14
:1002A00001221A700B4B1B68002B04DD094B1B68E5
:1002B0005A1E084B1A6000BF80BD00BFC00000205E
:1002C000F4000020F8000020AB090020A90900205C
:1002D000AC090020C400002080B582B002AF1748EE
:1002E000012101F091F9052006210222012302F0EB
:1002F000B5FD01230093052006210022012302F011
:1003000027FD052007210222012302F0A7FD01237A
:100310000093052007210022012302F019FD092086
:10032000FFF74EFF0920FFF733FF1120FFF748FFCB
:100330001120FFF72DFFBD4680BD00BF002508003E
:1003400080B582B000AFFFF775FF78607868FFF77F
:1003500061FF7B6803F04003002B02D0064B0122B3
:100360001A707B6803F08003002B02D0034B01223C
:100370001A700837BD4680BDAA090020A8090020D0
:1003800080B500AFFFF7DCFF80BD00BF80B500AFD8
:10039000FFF7D6FF80BD00BF80B582B000AF03F08D
:1003A000C7F900200C4903F0EDF978607B68002B59
:1003B00000D00EE0FFF790FF03F05CF9074B00223E
:1003C0001A70064B1B78DAB2054B1A70054B0122E6
:1003D0001A700837BD4680BDC8000020A90900205A
:1003E000AB090020C000002080B500AF094800F034
:1003F0004BFD04206021084A00F058FB04206821CE
:10040000064A00F053FB04207021054A00F04EFB21
:1004100080BD00BFF0580000F060000004610000E3
:100420001C61000080B584B002AF01237B609F4B4C
:100430001B78DBB2002B00F035819C4B00221A7038
:100440009B4B1B78DBB20A2B00F22F8101A252F8E2
:1004500023F000BF8104000097040000D9040000CD
:10046000ED0400000705000029050000410500001B
:1004700019060000370600005D0600007F06000038
:100480008C4800F001FD01208B4900F015FD8B4BDD
:1004900001221A7005E1012003F070F80346002BD9
:1004A0000FD1002003F06AF80346002B09D1844BDA
:1004B0001B78DBB2002B04D1824B1B78DBB2002B04
:1004C00009D07F4B00221A707E4B00221A707B4BA2
:1004D00002221A70E5E0E4E0FFF786FF012076498A
:1004E00000F0EAFC754B03221A70DAE0744B1B78BB
:1004F000DBB2002B06D0724B00221A706F4B042225
:100500001A70CEE0CDE0786800F004FA00F076F9D9
:100510000120694900F0D0FC6B4B4FF47A721A60ED
:10052000664B05221A70BCE0674B1B68002B06D196
:10053000634B00221A70614B06221A70B1E0B0E0E2
:100540005F4B1B78DBB2002B06D05D4B00221A708C
:100550005A4B07221A70A4E0012003F00FF803465B
:10056000002B09D0002003F009F8034683F00103B3
:10057000DBB2002B00D008E0002002F0FFFF0346B2
:10058000002B02D0012002F0F9FF4E4B1B78DBB2AA
:10059000002B04D04B4B00221A7000F0B5F800F08D
:1005A00073F9386000F02AF93B68012B14D100235D
:1005B0000093232039215D22452300F0E9FB25200B
:1005C0003B21424A00F072FA3F4B40F2DC521A6083
:1005D0003A4B09221A701AE03B68022B14D100230F
:1005E0000093232039215722452300F0D1FB2520F9
:1005F0003B21374A00F05AFA334B40F2DC521A6082
:100600002E4B0A221A7002E02C4B06221A70002090
:10061000294900F051FC44E0FFF7E6FE2E2050216E
:100620002C4A00F043FA0120234900F045FC234BFB
:1006300008221A7035E0224B1B78DBB2002B0CD05D
:100640001F4B00221A7000F0D9F801201A4900F05F
:1006500033FC1A4B06221A7023E022E01A4B1B6867
:10066000002B0BD101237B60154B00221A70154B18
:1006700000221A70114B00221A7012E011E0124B86
:100680001B68002B0CD17B6801337B600C4B002274
:100690001A700C4B00221A70084B04221A70FFE7E4
:1006A00000BF02E0FFF7A6FDC1E6C0E6AC090020EE
:1006B000A9090020F0500000C8000020AB0900206C
:1006C000AA090020A8090020C40000203061000011
:1006D0003C6100004861000080B485B000AFF86064
:1006E000B9607A603B60FB68BA681A60FB687A6838
:1006F0005A60FB683A689A60FB6800221A731437E4
:10070000BD465DF8047B704780B400AF094B1B68A1
:100710005A1C084B1A60084B5B68452B06DC064BDD
:100720005B683A2B02DD044B01221A73BD465DF86B
:10073000047B70470C010020FC00002080B586B0CF
:1007400000AFF860B9607A60FB70BB68013B7B6109
:10075000BB68013BFA68134400221A7019E07B69F8
:10076000013B7B617B69FA68D0187968224BA3FB57
:100770000123DA0813469B0013445B00CA1AD3B264
:100780003033DBB203707A681B4BA3FB0213DB0828
:100790007B607B69002BE2D1FB78002B29D0002302
:1007A0007B6102E07B6901337B617B69FA681344FA
:1007B0001B78302BF6D07B69002B1AD0BB685A1EF1
:1007C0007B69D31A3B613B69002B04D101233B6158
:1007D0007B69013B7B617B69FA681A443B69F86875
:1007E00011461A4604F0A4FB3B69FA681344002240
:1007F0001A701837BD4680BDCDCCCCCC80B582B048
:1008000000AF00F051FB022002211A4A00F04EF91D
:10081000194B1B683A46104605211A460123FFF77B
:100820008DFF3B46242002211A4600F03FF93D206F
:100830000221124A00F03AF9114B1B683A46104661
:1008400005211A460023FFF779FF3B466720022166
:100850001A4600F02BF90B4B59680A4B9A68094B62
:100860001B68084611461A4600F0F2F90837BD46E3
:1008700080BD00BF506100000400002058610000EE
:100880000C010020FC00002098B500AF1F4B1B6836
:10089000184603F069FE044604F05CFB0346184664
:1008A00003F062FE034618464FF09E4103F064FFDA
:1008B00003461846194603F0A3FD03462046194691
:1008C00003F0A6FE0346184603F0F2FF02460F4B64
:1008D0001A600F4B5A680D4B1B681A440C4B5A6038
:1008E0000B4B5B686D2B03DC094B5B68002B04DC56
:1008F000064B1B685A42054B1A60054B1B7B002BAD
:1009000001D0022300E00023184698BD000000201B
:10091000FC00002080B582B000AF78600D4B1B68F2
:100920000D48194628224023FFF7D6FE0B4B7A6864
:100930001A600A4B1B68012B02D1094B00221A6076
:10094000084B00221A60084B00221A600837BD4687
:1009500080BD00BF14000020FC0000200400002027
:100960000C010020100100201401002080B483B08D
:1009700000AF03463960FB7197F90730002B0BDAA3
:100980000D49FB7903F00F03043B3A68D2B25201E0
:10099000D2B20B441A7609E0084997F907303A6851
:1009A000D2B25201D2B20B4483F800230C37BD46B9
:1009B0005DF8047B704700BF00ED00E000E100E05F
:1009C00080B582B000AF78607B68013BB3F1807F77
:1009D00001D301230FE00A4B7A68013A5A604FF0C5
:1009E000FF300721FFF7C2FF054B00229A60044B3E
:1009F00007221A60002318460837BD4680BD00BF95
:100A000010E000E080B400AFBD465DF8047B7047A5
:100A100080B500AFFFF71AFC80BD00BFB0B588B04D
:100A200000AF1E4A07F1140310685168926807C3AB
:100A30001B4B3C461D4628686968AA68EB680FC4D2
:100A40002B8A2380FFF7DEFF07F11403184601F01D
:100A5000E1FD3B46184601F0B5FA1120042101F0F2
:100A60009FF903200021002201F04EFB0D4800F009
:100A700037FE02460C4BA3FB02139B091846FFF7F7
:100A80009FFF0346002B00D0FEE7FFF785FCFFF732
:100A9000C9FC002318462037BD46B0BD6061000088
:100AA0006C61000050000200D34D621080B48BB026
:100AB00000AFF860B9607A6000237B62B0E07B6AC7
:100AC0007A6813441B78FB76FB7E1F2B02D9FB7ED2
:100AD0007E2B01D92023FB760023FB618DE0FB7E7A
:100AE000A3F12002544B1B68F96991FBF3F36421D5
:100AF00001FB03F31344514AD35CBB7600233B62F2
:100B00004BE0BA7E4C4B1B68396A91FBF3F342FA17
:100B100003F303F00103002B3CD0FA683B6A1A444C
:100B2000B968FB690B44DB011344002B00DA07337F
:100B3000DB101A46424B13447B61FA683B6A1A4445
:100B4000404B1340002B03DA013B63F007030133F2
:100B50003B613D4B1B68002B0FD07B691B78DAB2E1
:100B600001213B6901FA03F3DBB2DB43DBB2134043
:100B7000DBB2DAB27B691A700CE07B691B78DAB2FF
:100B800001213B6901FA03F3DBB21343DBB2DAB2B2
:100B90007B691A703B6A01333B62274B1A68134624
:100BA0005B0013445B001A463B6A9A42A9DC274B60
:100BB0001968BA68FB691344002B00DA0733DB10AD
:100BC0001A460A44214909680B441B78D9B2B8680F
:100BD000FB6918441B4B0340002B03DA013B63F015
:100BE00007030133012000FA03F3DBB20B43DBB24E
:100BF000DBB21370FB690133FB610F4B1B68DA003A
:100C0000FB699A423FF76BAF7B6A01337B620A4B09
:100C10001A6813465B0013445B00FA681344FB60D8
:100C20007B6A7A6813441B78002B7FF448AF2C371B
:100C3000BD465DF8047B7047100000208061000015
:100C40001801002007000080380900200C00002057
:100C500080B48BB000AFF860B9607A6000233B626B
:100C600082E000237B6254E07B681B681A017B6A88
:100C70001344002B00DA0733DB1019463A6A134697
:100C8000DB0013441B01002B00DA0733DB100B449D
:100C90003B4AD35CFB777A6A3A4B1340002B03DA6A
:100CA000013B63F007030133BB61FA7FBB6942FA82
:100CB00003F303F00103002B28D0FA687B6A1A447F
:100CC000B9683B6A0B44DB011344002B00DA07339D
:100CD000DB101A462C4B13447B61FA687B6A1A447A
:100CE000284B1340002B03DA013B63F00703013369
:100CF0003B617B691B78DAB201213B6901FA03F39E
:100D0000DBB21343DBB2DAB27B691A707B6A013360
:100D10007B627B685A687B6A9A42A5DC1B4B196828
:100D2000BA683B6A1344002B00DA0733DB101A461B
:100D30000A44164909680B441B78D9B2B8683B6A63
:100D40001844104B0340002B03DA013B63F0070308
:100D50000133012000FA03F3DBB20B43DBB2DBB259
:100D600013703B6A01333B627B689A683B6A9A4224
:100D70003FF777AF2C37BD465DF8047B704700BF67
:100D8000A064000007000080180100200C00002073
:100D900080B489B000AFF860B9607A603B60BB682E
:100DA000BB6161E0FB68FB6138E0BB69DA01FB69AC
:100DB0001344002B00DA0733DB101A462F4B134481
:100DC0007B61FA692E4B1340002B03DA013B63F081
:100DD000070301333B61BB6A002B0DD07B691B7895
:100DE000DAB201213B6901FA03F3DBB21343DBB250
:100DF000DAB27B691A700EE07B691B78DAB20121E6
:100E00003B6901FA03F3DBB2DB43DBB21340DBB235
:100E1000DAB27B691A70FB690133FB61FA697B689E
:100E20009A42C2DB174B1968BB69002B00DA073303
:100E3000DB101A460A44134909680B441B78D9B2DF
:100E4000B8690F4B0340002B03DA013B63F0070343
:100E50000133012000FA03F3DBB20B43DBB2DBB258
:100E60001370BB690133BB61BA693B689A4299DB75
:100E70002437BD465DF8047B704700BF1801002091
:100E8000070000800C00002080B582B000AF7860C1
:100E9000044879684FF4006204F04AF80837BD4608
:100EA00080BD00BF1801002080B500AF0148FFF7EA
:100EB000EBFF80BD3065000090B589B002AF0346FE
:100EC0003960FB7100237B61FB79002B0CD03B6800
:100ED0001C6A3B685B68002200928022019238689D
:100EE0004C490022A04791E000233B6156E04A4B69
:100EF0001A683B69002B00DA0733DB1013441B78B8
:100F00001A463969454B0B40002B03DA013B63F06D
:100F10000703013342FA03F303F00103002B18D156
:100F20003F4B1A683B69002B00DA0733DB10134490
:100F30001B781A463969394B0B40002B03DA013B09
:100F400063F00703013342FA03F303F00103002BBC
:100F500003D07B6901337B611DE07B69002B1ADDC7
:100F60003A697B69D31AFB603B681C6AFB68DB014A
:100F7000002B00DA0733DB101A46264B1A443B6875
:100F80005B68F86879690090019138681146002221
:100F9000A04700237B613B6901333B613B697F2BA9
:100FA000A5DD7B69002B18DD7B69C3F18003FB6045
:100FB0003B681C6AFB68DB01002B00DA0733DB109F
:100FC0001A46144B1A443B685B68F86879690090CC
:100FD0000191386811460022A0470F4B1B68BB6087
:100FE0000F4B1A680C4B1A600D4BBA681A6000233D
:100FF0003B6108E0084B1A683B69134400221A70F1
:101000003B6901333B613B690F2BF3DD1C37BD4668
:1010100090BD00BF180100200C00002007000080D8
:101020000800002080B487B000AFF860B9607A6033
:10103000FB6803F10473DA00BB6813449B007B6117
:101040007B697A681A601C37BD465DF8047B70477F
:1010500080B485B000AF786039607B6803F1C0630D
:10106000FB60FB683A681A601437BD465DF8047B84
:10107000704700BF80B485B000AF786039607B688E
:1010800003F18063FB60FB683A681A601437BD4661
:101090005DF8047B704700BF80B584B000AFF86096
:1010A000B9607A60F868B968FFF7E4FFF8687968B2
:1010B000FFF7CEFF1037BD4680BD00BF80B582B0C0
:1010C00000AF786039607B68B3F1804F07D07A68F1
:1010D000274B9A4203D02748712100F0ABF83B68B8
:1010E0001B693F2B03D92348772100F0A3F83B6805
:1010F000DB683F2B03D91F48782100F09BF83B6841
:101100005B683F2B03D91B487D2100F093F83B68B7
:101110001B78DB071A463B685B681B06134343F4E6
:1011200000427B681A603B68DB681A043B681B7AE4
:101130001A437B689A623B681B691A043B685B7AB6
:101140001A437B68DA623B689B7A1B0743F0806333
:1011500043F47D437A6853607A683B681B7D104690
:1011600000211A46FFF75EFF0837BD4680BD00BF6D
:10117000000400409C6D000080B582B000AF786034
:101180000B46FB707B68B3F1804F07D07A68094B40
:101190009A4203D00848BD2100F04CF87B681A1D24
:1011A000FB781046FF211A46FFF776FF0837BD4649
:1011B00080BD00BF000400409C6D000080B582B07F
:1011C00000AF78607B68B3F1804F07D07A68084B36
:1011D0009A4203D00748D62100F02CF87B681B68A0
:1011E00023F001027B681A600837BD4680BD00BF4E
:1011F000000400409C6D000080B582B000AF7860B4
:101200007B68B3F1804F07D07A68084B9A4203D0CD
:101210000748E52100F00EF87B681B6843F00102E7
:101220007B681A600837BD4680BD00BF00040040DF
:101230009C6D000080B483B000AF78603960FEE739
:1012400080B487B000AFF860B9607A60FB6803F1E2
:101250000473DA00BB6813449B007B617B697A6886
:101260001A601C37BD465DF8047B704780B485B0BA
:1012700000AF786039607B6803F10473DA003B6883
:1012800013449B00FB60FB681B6818461437BD467F
:101290005DF8047B704700BF80B485B000AF786014
:1012A00039607B6803F1C063FB60FB683A681A60D1
:1012B0001437BD465DF8047B704700BF80B485B02D
:1012C00000AF786039607B6803F18063FB60FB6886
:1012D0003A681A601437BD465DF8047B704700BF5A
:1012E00080B584B000AFF860B9607A60F868B9681A
:1012F000FFF7E4FFF8687968FFF7CEFF1037BD46C7
:1013000080BD00BF80B483B000AF786039607B6877
:101310001A683B68134018460C37BD465DF8047BDD
:10132000704700BF80B483B000AF78607B68012253
:1013300002FA03F318460C37BD465DF8047B70478C
:1013400080B586B000AF78607B68B3F5004F04D3FA
:10135000114840F24D51FFF76DFF7B6801333B614F
:101360003B69B3FA83F3FB60FB68DBB2C3F11F0395
:101370007B617869FFF7D6FF03465A1E7B689A4265
:1013800004D0054840F25351FFF754FF7B691846DB
:101390001837BD4680BD00BFB06D000080B483B07B
:1013A00000AF054B1B687B607B6818460C37BD4659
:1013B0005DF8047B704700BF1800002080B582B044
:1013C00000AF0F4800F040FC0346FB70FB78082B91
:1013D00005D0092B07D102F0A3FF78600AE0FFF7E0
:1013E000DDFF786006E00748C321FFF723FF0023F5
:1013F0007B6000BF7B6818460837BD4680BD00BFD4
:1014000006000C00046E000080B485B000AF786068
:10141000184B1B6C002B0CBF00230123FB72154BD8
:1014200041F671321A64134B5B6803F04073FB6042
:101430007A68114B9A4207D87A68104B9A4203D9BE
:101440004FF08073FB6001E00023FB60094B094A09
:10145000526822F04071FA680A435A60FB7A002B06
:1014600002D0044B00221A641437BD465DF8047B99
:10147000704700BF00000E40005A620280BA8C0123
:1014800080B500AF02F042FF03461846FFF7BCFFED
:1014900080BD00BF80B584B000AF78600023BB6022
:1014A0007B68384A93420BD0374A934208D0374A78
:1014B000934205D036484FF4A871FFF7BBFE00E019
:1014C00000BF786800F0C0FB0346FB607B682D4AD4
:1014D00093420CD02C4A934210D02C4A934214D100
:1014E0002C4BD3F8803003F00703FB6013E0294B4B
:1014F000D3F8843003F00703FB600CE0254BD3F8EE
:10150000883003F00703FB6005E021484FF4BD710C
:10151000FFF790FE00BFFB68042B2ED801A252F803
:1015200023F000BF751500003915000041150000BB
:10153000511500004915000002F03CFFB8601CE0A6
:1015400002F04CFFB86018E002F03EFFB86014E013
:10155000104BD3F8003103F08073002B04D002F05D
:10156000B3FE03469B0803E002F0AEFE03465B08B1
:10157000BB6002E00023BB6000BFBB6818461037A9
:10158000BD4680BD03001A0005001E0002001800C1
:10159000046E000000400E4080B483B000AF78605D
:1015A0000A4BD3F8443103F00103002B00D007E0CD
:1015B00000BF064BD3F840217B681340002BF8D1C5
:1015C0000C37BD465DF8047B704700BF00400E40FD
:1015D00080B582B000AF7860786800F057F90346B4
:1015E000013318460837BD4680BD00BF80B582B0C4
:1015F00000AF786039603B68013B7868194600F0BD
:10160000EFF90837BD4680BD80B586B000AF786081
:101610000B46FB7000233B617B681B0A03F00F0342
:10162000013B092B32D801A252F823F055160000D5
:10163000611600008D1600008D1600005B1600007C
:1016400067160000711600008D1600007B16000062
:10165000871600001A4B7B611EE01A4B7B611BE072
:10166000194B7B6118E0194B7B6101233B6113E04F
:10167000174B7B6110233B610EE0164B7B614FF4EF
:1016800080333B6108E0144B7B6105E0134840F276
:10169000AE51FFF7CFFD10E07B681B0B03F01F037B
:1016A000FB603B69002B02D03869FFF775FFFB78C0
:1016B0007869F9681A46FFF7C3FD1837BD4680BD43
:1016C00000400E40B0400E40C0400E40E0400E4092
:1016D000E8400E40F0400E4050410E40046E0000C5
:1016E00080B584B000AF78607B6803F47813B3F5FD
:1016F000602F00F0AD80B3F5602F16D8B3F5802FC2
:1017000039D0B3F5802F05D8002B25D0B3F5003F95
:1017100044D0A1E0B3F5202F4FD0B3F5402F00F017
:101720009380B3F5002F35D096E0B3F5A01F74D0A9
:10173000B3F5A01F06D8B3F5801F52D0B3F5901FA4
:1017400054D089E0B3F5D01F62D0B3F5F01F76D046
:10175000B3F5C01F40D07FE002F0E2FDF860454BDA
:10176000D3F8003103F4F8531B0A0133FA68B2FBD3
:10177000F3F3FB6078E002F0D3FDF8603D4BD3F863
:101780000C213D4B13401B0A0133FA68B2FBF3F303
:10179000FB6069E002F0C4FDF86065E002F0C0FDA6
:1017A000F860344BD3F80821334B13401B0A013344
:1017B000FA68B2FBF3F3FB6056E002F0B1FDF860AB
:1017C0002C4BD3F8143103F4F8531B0A0133FA6895
:1017D000B2FBF3F3FB6047E02848FFF75BFEF860DD
:1017E00042E02748FFF756FEF8603DE02348FFF748
:1017F00051FEF8601F4BD3F8203103F00F03184659
:10180000FFF790FD0346FA68B2FBF3F3FB602BE0B1
:101810001C48FFF73FFEF86026E01A48FFF73AFE43
:10182000F860144BD3F8283103F003031846FFF790
:1018300079FD0346FA68B2FBF3F3FB6014E010484D
:10184000FFF728FEF8600FE0FFF7B8FDF8600BE047
:10185000FFF7A4FDF86007E00B4840F28461FFF752
:10186000E9FC0023FB6000BFFB6818461037BD464B
:1018700080BD00BF00400E4000FF010002001800C4
:1018800005001E0003001A00046E000080B584B03D
:1018900000AF78607B681B0903F00F03BB60BB6877
:1018A000013B082B00F2828001A252F823F000BF16
:1018B000D5180000E5180000F51800000519000013
:1018C00015190000AD190000251900005919000074
:1018D0008D1900003C4BD3F8003103F4F8531B0A78
:1018E000FB606BE0384BD3F8143103F4F8531B0A58
:1018F000FB6063E0344BD3F8003103F080731B0EC0
:10190000FB605BE0304BD3F80C21304B13401B0ADB
:10191000FB6053E02C4BD3F808212C4B13401B0ADF
:10192000FB604BE07A682A4B9A420CD1264BD3F8E5
:10193000203103F00F03FB60F868FFF7F3FC034668
:10194000013BFB6007E0234840F2D161FFF772FCE6
:101950000023FB6000BF31E07A681F4B9A420CD134
:10196000194BD3F8283103F00303FB60F868FFF745
:10197000D9FC0346013BFB6007E0164840F2ED61ED
:10198000FFF758FC0023FB6000BF17E07A68134B99
:101990009A4202D10023FB6007E00E4840F2FE614C
:1019A000FFF748FC0023FB6000BF07E0094840F256
:1019B0000671FFF73FFC0023FB6000BFFB68184681
:1019C0001037BD4680BD00BF00400E4000FF010043
:1019D00070061200046E00008007140090091000C9
:1019E00080B584B000AF786039607B681B0903F074
:1019F0000F03FB60FB68013B082B00F2108101A282
:101A000052F823F0291A0000511A0000791A000038
:101A1000A11A0000CF1A00001F1C00000F1B0000BD
:101A2000911B0000DB1B00003B681F2B04D9804882
:101A300040F22E71FFF7FEFB7E4B7E4AD2F800216A
:101A400022F4F8513A6812020A43C3F80021ECE08C
:101A50003B681F2B04D9764840F23571FFF7EAFB4B
:101A6000744B744AD2F8142122F4F8513A681202E5
:101A70000A43C3F81421D8E03B68012B04D96C4811
:101A800040F23C71FFF7D6FB6A4B6A4AD2F800215C
:101A900022F080713A6812060A43C3F80021C4E0BC
:101AA0003B68B3F5007F04D3614840F24571FFF70E
:101AB000C1FB604A5F4BD3F80C3123F4FF3323F4AE
:101AC0008073396809020B43C2F80C31ADE03B6802
:101AD000B3F5007F04D3564840F25571FFF7AAFBD7
:101AE0005548FFF791FC534A524BD3F8083123F481
:101AF000FF3323F48073396809020B43C2F80831BD
:101B000002F0E2FBB860B868FFF77EFC8DE07B680E
:101B10004A4A934203D04A4A934217D031E03B6885
:101B2000002B04D0424840F27C71FFF783FB4FF456
:101B30008020FFF731FD3F4B3E4AD2F8302122F0A2
:101B40000F013A680A43C3F8302120E03B68B3F53F
:101B5000004F04D9364840F29471FFF76BFB3868A8
:101B6000FFF7EEFB38600420FFF716FD314B314ADA
:101B7000D2F8202122F00F013A680A43C3F820214D
:101B800005E02B4840F2A271FFF754FB00BF4CE088
:101B90007A682C4B9A4219D13B68082B04D9244807
:101BA00040F2AC71FFF746FB3868FFF7C9FB3860BD
:101BB0004020FFF7F1FC1F4B1E4AD2F8282122F0EB
:101BC00003013A680A43C3F8282105E0184840F2A7
:101BD000C971FFF72FFB00BF27E07A68174B9A42C5
:101BE00016D13B68002B04D0114840F2D371FFF7A7
:101BF00021FB4FF48020FFF7CFFC0E4B0D4AD2F8AB
:101C0000302122F00F013A680A43C3F8302105E081
:101C1000074840F2DE71FFF70DFB00BF05E0044806
:101C200040F2E471FFF706FB00BF1037BD4680BDF0
:101C3000046E000000400E4081BA8C019009100033
:101C4000700612008007140080B584B000AF786081
:101C50000123FB737B6803F00F03BB60BB68013B90
:101C6000052B00F28C8001A252F823F0851C0000A5
:101C7000B51C0000E51C00007F1D00002D1D0000AC
:101C80005D1D0000444B5B6F03F00703032B07D07F
:101C9000042B02D0022B06D008E00223FB7308E0DD
:101CA0000323FB7305E00423FB7302E00523FB73AE
:101CB00000BF6CE0384BD3F8803003F00703022BF1
:101CC00006D0042B07D0012B08D10323FB7308E0B7
:101CD0000223FB7305E00A23FB7302E00123FB737D
:101CE00000BF54E02C4BD3F8843003F00703013BD2
:101CF000032B17D801A252F823F000BF0D1D0000DE
:101D0000131D00001F1D0000191D00000323FB739D
:101D10000BE00223FB7308E00A23FB7305E00623B4
:101D2000FB7302E00123FB7300BF30E01A4BD3F8D2
:101D3000883003F00703022B06D0042B07D0012BB9
:101D400008D10323FB7308E00223FB7305E00A2399
:101D5000FB7302E00123FB7300BF18E00E4B1B6F07
:101D600003F00103002B04D0012B05D10923FB73E1
:101D700002E00823FB7300BF0823FB7307E007485A
:101D800040F63511FFF756FA0023FB7300BFFB7BCB
:101D900018461037BD4680BD00400E40046E00005E
:101DA00080B588B000AF78600B46FB700323FB6101
:101DB0000323FB7600233B617B6803F00F03FB608A
:101DC000FB68013B042B00F2E38001A252F823F0F0
:101DD000E51D00009B1E0000D71E0000911F0000A3
:101DE000B91E0000FB78023B082B3CD801A252F838
:101DF00023F000BF191E0000231E00002D1E00004E
:101E0000511E0000671E0000671E0000671E0000D4
:101E1000671E00005B1E00000423FB610023FB76AD
:101E200027E00323FB610123FB7622E00223FB76FC
:101E30000223FB6102F0A2FA02465A4B9A4206D9EB
:101E4000594B594A126842F480321A6011E010E08E
:101E50000123FB610323FB760BE0544840F6C911D4
:101E6000FFF7E8F99AE0514840F6CE11FFF7E2F9A2
:101E700094E0FB7E18460121012200F045F9FFF7AE
:101E8000FFFA494BFA695A6700F010FA02F01CFA9F
:101E9000B860B868FFF7B8FA80E03B69002B01D062
:101EA0003B6900E0424B3B61FB78062B04D13F4885
:101EB00040F6EF11FFF7BEF93B69002B01D03B69FB
:101EC00000E03C4B3B61FB78062B04D1374840F6E1
:101ED000F511FFF7AFF93B69002B01D03B6900E03A
:101EE000354B3B61FB78013B092B47D801A252F8E7
:101EF00023F000BF1D1F0000231F0000331F000040
:101F00007D1F00007D1F0000431F00007D1F00009B
:101F10007D1F00007D1F0000771F000000237B61F4
:101F200032E000200121012200F0EEF802237B6163
:101F30002AE001200121012200F0E6F801237B6163
:101F400022E01E4800210122FFF77AF903237B617A
:101F500002F0BAF9B860BA68124B9A420AD912482C
:101F600010210122FFF76CF9154818210122FFF713
:101F700067F909E008E004237B6105E00B4840F6BF
:101F80002221FFF757F909E03B697A691A6005E0F9
:101F9000064840F60631FFF74DF900BF2037BD4631
:101FA00080BD00BF0048E80100400E40046E000004
:101FB00080400E4088400E4084400E40B0400E40AD
:101FC00000410E4080B584B000AF78601120FFF76B
:101FD0003BFE0346042B04D1424840F68141FFF703
:101FE00029F902200021002200F08EF87B681B787E
:101FF000002B02D04FF4807200E000227B68DB7877
:10200000002B02D04FF0804300E000231A437B688E
:102010005B78002B02D04FF0805300E000231A437E
:102020007B689B78002B02D04FF0005300E0002328
:1020300013432D482D491A46FFF752F97B681B7B45
:102040002B4807211A46FFF74BF97B689B88DA0279
:102050007B681B7A1B071A437B689B7A134343F404
:102060000003244824491A46FFF73AF97B685B7A53
:102070000333FB600F23BB60FA68BB689A4238BF2A
:102080001346FB60FB681B07FB607B68DB88DA029A
:102090007B685B7ADB011A437B68DB7A13431A4661
:1020A000FB68134315486FF07F611A46FFF718F974
:1020B0007B685B7B1A047B689B7B1B031A437B68F2
:1020C000DB7B1B021A437B681B7C1B011A437B686A
:1020D0005B7C13430A480B491A46FFF701F9103796
:1020E000BD4680BD046E000024400E40000100701B
:1020F00028400E402C400E407FF8EFFF30400E404D
:1021000034400E40FFFF0F0080B586B000AF13468D
:102110000246FA710A46BA717B71FB79042B3CD8EE
:1021200001A252F823F000BF8521000073210000B6
:102130004F2100003D210000612100000123FB60D0
:102140000223BB6001237B6100233B612BE004235E
:10215000FB600823BB6003237B6102233B6122E019
:102160001023FB602023BB6005237B6104233B61BC
:1021700019E04023FB608023BB6007237B610623BB
:102180003B6110E04FF48073FB604FF40073BB6061
:1021900009237B6108233B6105E0274840F68D5108
:1021A000FFF748F844E0BB79002B34D0234BFA68A2
:1021B0001A6600BF22483969FFF758F80346002B1A
:1021C000F8D07B79002B31D000BF1D487969FFF72B
:1021D0004DF80346002BF8D0FB79022B26D1194885
:1021E0003021FFF78FF80346002B1FD100BF1448A2
:1021F0001721FFF73BF80346002BF8D010481621B3
:10220000FFF734F80346002B10D10B4840F6AC51D1
:10221000FFF710F80AE0094BBA681A6600BF0848D1
:102220003969FFF723F80346002BF8D100F03EF898
:102230001837BD4680BD00BF046E000000400E4050
:1022400090400E4024400E4080B487B000AFF8604C
:10225000B9607A60FB6803F10473DA00BB68134469
:102260009B007B617B697A681A601C37BD465DF80C
:10227000047B704780B400AF034B1B6DDBB2184684
:10228000BD465DF8047B7047B081E00F80B400AFBD
:10229000054BDB6C03F47F031B0CDBB21846BD4619
:1022A0005DF8047B704700BFB081E00F80B400AFE1
:1022B000074BD3F89020074B1A60054BD3F89430A6
:1022C0009AB2054B1A80BD465DF8047B704700BF8B
:1022D00000400E40400900204409002080B588B02D
:1022E00000AF2A4BFB612A4BBB612A4B7B612A4B17
:1022F0003B612A4BFB602A4BBB602A4BD3F86C3105
:10230000B3F1FF3F37D0FB695B687B60FB691B68FB
:102310003B603B687A681A60BB695B687B60BB693D
:102320001B683B603B687A681A607B695B687B600E
:102330007B691B683B603B687A681A603B695B6835
:102340007B603B691B683B603B687A681A60FB688E
:102350005B687B60FB681B683B603B687A681A605F
:10236000BB685B687B60BB681B683B603B687A68E6
:102370001A60012305E00C4840F2DA31FEF75AFFFB
:10238000002318462037BD4680BD00BF3880E00FCF
:102390004080E00F4880E00F5080E00F5880E00F51
:1023A0006080E00FB081E00F186E000080B584B04F
:1023B00000AF254B244AD26E42F08072DA66224B7F
:1023C000214A126F22F007021A671F4B1E4A126E33
:1023D00022F0C0421A66FFF759FF0346FB733B1D0C
:1023E000184600F085FEFB7B0F2B02D9FB7B1B2BD5
:1023F00005D9FB7B512B02D0FB7B532B20D17B7962
:10240000012B1DD13B79022B1AD8104B1B78002BC6
:1024100016D10F4B0E4A126842F001021A600A4BA5
:102420001B6EBB60BA680B4B1340BB60BA680A4BAB
:102430001343BB60044BBA681A66044B01221A703E
:102440001037BD4680BD00BF00300E403C09002063
:1024500044300E40000F0EF0B4C0400B80B485B085
:1024600000AF184BDB6C03F470631B0AFB60164B68
:102470001B881946FB685A1C13469B001344B1FB8A
:10248000F3F3013BBB60FB685A1C13469B001344EB
:102490005022B2FBF3F3013B7B60BB681B06BB60C1
:1024A0007B681B057B60074B064AD26C22F0EE610D
:1024B000B8687A6802430A43DA641437BD465DF8A7
:1024C000047B704700300E404609002080B582B082
:1024D00000AF78607B689AB2034B1A80FFF7BEFFAB
:1024E0000837BD4680BD00BF4609002080B584B0D6
:1024F00000AF03463960FB71FFF7BCFE0346FB7279
:10250000FB7A032B10D82D4BD3F87C31FB60FB7981
:10251000002B05D0FB6803F47F431B0AFB6030E00F
:10252000FB68DBB2FB602CE0244BD3F88031FB600E
:102530003B68032B1ED801A252F823F04D25000062
:1025400055250000612500006D250000FB68DBB209
:10255000FB6016E0FB6803F47F431B0AFB6010E09E
:10256000FB6803F47F031B0CFB600AE0FB681B0E97
:10257000FB6006E0124840F28141FEF75BFE00235B
:1025800017E0FB681B03FB60FB6823F47043002B20
:1025900006D00B4840F28B41FEF74CFE002308E0CA
:1025A000084B084AD26E22F47041FA680A43DA6690
:1025B000012318461037BD4680BD00BFB081E00F33
:1025C000186E000000300E4080B582B000AF0346A8
:1025D000FB7100BF0D4B9B6F03F00103002BF9D182
:1025E000FB79002B0CBF00230123DBB208480D212F
:1025F0001A46FFF729FE054B044A126C22F003012C
:10260000FA790A431A640837BD4680BD00300E408F
:1026100054300E4080B584B000AF7860474B7A6884
:1026200012789A63454B9B6B03F00F027B681B7813
:102630009A4206D0424840F2C241FEF7FBFD002319
:1026400078E0FFF74BFE7B681B89C82B04D93C4818
:1026500040F2CB41FEF7EEFD7B689A887B681B89D0
:102660009A4204D9364840F2CC41FEF7E3FD7B683C
:102670005B78012B08D17B689B88C82B04D9304834
:1026800040F2D141FEF7D6FD7B68DB88642B04D98C
:102690002B4840F2D541FEF7CDFD4FF08053FB6053
:1026A0007B68DB880A2B01D80023FB60234A234B7D
:1026B000DB6C23F0405323F001037968C97A0846A4
:1026C000F96801430B43D364FFF770FE7B681B89F5
:1026D0001846FFF7FBFE7B689B88184600F0E8F978
:1026E0007B685A88174B1A80164B1B8818460121A5
:1026F000012200F02BF8034683F00103DBB2002B2C
:1027000006D00F4840F2F141FEF794FD002311E09E
:102710007B685B781846FFF757FF7B689B7A002B36
:102720000CBF00230123DBB2074805211A46FFF73F
:102730008BFD012318461037BD4680BD00300E408A
:10274000186E0000480900203C300E4080B58EB065
:1027500000AF786013460A46FA70BB700023FB6234
:102760000023BB620023FB6100237B6200233B62EA
:10277000002387F83730A94B9B6B03F00F03022B24
:1027800013D17B68B3F5966F06D37A6840F6B833F9
:102790009A4201D8012300E0002387F8373097F8E8
:1027A000373003F0010387F8373097F8373083F07C
:1027B0000103DBB2002B06D0994840F22951FEF705
:1027C00039FD00236DE1002387F8363063E197F887
:1027D0003630002B05D1FB7883F00103DBB2002BF0
:1027E00009D197F83630012B06D1BB7883F001036D
:1027F000DBB2002B00D049E197F83630002B01D036
:10280000884B00E0884BBB6197F83630002B01D035
:10281000082300E001237B617B68B3F5E16F94BF7F
:1028200000230123FB74FB7C002B0ED04FF4E163EB
:102830007B6240F6B8333B6297F83630002B01D00C
:10284000022300E001233B6307E04FF496637B62C1
:102850004FF4E1633B6200233B6397F83630002B73
:102860001CD0FB7C002B0CD0704BD3F86831FB6282
:10287000FB6A1B0EBB62FB6A03F47F031B0CFB624B
:10288000BFE06A4BD3F86831FB62FB6A03F47F4315
:102890001B0ABB62FB6ADBB2FB62B2E05F4BDB6C24
:1028A00003F04053FB603B6B03F04053002B04D01C
:1028B0005B4840F26551FEF7BDFC3A6BFB68134381
:1028C0005B4A934228D05A4A934207D8012B16D02C
:1028D000012B48D3B3F1805F52D078E0554A934240
:1028E00027D0544A934203D8B3F1005F55D06EE02D
:1028F000B3F1405F5ED0504A934227D067E04B4B24
:10290000D3F87431FB62FB6A03F47F431B0ABB629A
:10291000FB6ADBB2FB6260E0444BD3F87431FB62CC
:10292000FB6A1B0EBB62FB6A03F47F031B0CFB629A
:1029300053E03E4BD3F87831FB62FB6A03F47F43EC
:102940001B0ABB62FB6ADBB2FB6246E0374BD3F883
:102950007831FB62FB6A1B0EBB62FB6A03F47F03E8
:102960001B0CFB6239E0314BD3F86C31FB62FB6A24
:1029700003F47F431B0ABB62FB6ADBB2FB622CE001
:102980002A4BD3F86C31FB62FB6A1B0EBB62FB6AFD
:1029900003F47F031B0CFB621FE0244BD3F8703160
:1029A000FB62FB6A03F47F431B0ABB62FB6ADBB278
:1029B000FB6212E01D4BD3F87031FB62FB6A1B0E09
:1029C000BB62FB6A03F47F031B0CFB6205E0144847
:1029D00040F2A951FEF72EFC00BFFB681B0FFA7CEA
:1029E00010461946FFF782FD034683F00103DBB270
:1029F000002B06D00A484FF4B661FEF71BFC0023FB
:102A00004FE0FB6AFF2B19D1BB6AFF2B16D104489C
:102A100040F2BA51FEF70EFC002342E000300E40B7
:102A2000186E00005C300E4064300E40B081E00F44
:102A30000100001001000020010000307A687B6A6C
:102A4000D31AB96AFA6A8A1A02FB03F2396A7B6AF4
:102A5000CB1AB2FBF3F3FB61FA69FB6A1344FB6127
:102A6000FA69BB6A9A4203D8FA69FB6A9A4206D2AB
:102A70000E4840F2C651FEF7DDFB002311E07B69F2
:102A8000FA699A403B6B1A43BB691A6097F8363073
:102A9000013387F8363097F83630012B7FF697AE42
:102AA000012318463837BD4680BD00BF186E0000B0
:102AB00080B584B000AF78600023FB60344B1B6F9F
:102AC00003F00703BB60324BDB6C03F00103002B08
:102AD00015D0BB68012B12D97B68132B02D80423B5
:102AE000FB600BE07B68132B05D97B68272B02D892
:102AF0000823FB6002E01023FB6033E032E0244B4C
:102B0000DB6C03F00103002B15D1BB68012B12D83D
:102B10007B68092B02D80423FB600BE07B68092B40
:102B200005D97B68132B02D80823FB6002E0102331
:102B3000FB6017E016E0164BDB6C03F00103002B83
:102B40000BD0BB68012B08D87B68272B02D8082341
:102B5000FB6007E01023FB6004E00E4840F20F61C9
:102B6000FEF768FBFB68013BFB60FB681A02FB6831
:102B70001B031343FB60064B054AD26C22F47F41D2
:102B8000FA680A43DA64FFF769FC1037BD4680BD76
:102B900000300E40186E000080B487B000AFF860BF
:102BA000B9607A60FB6803F10473DA00BB68134410
:102BB0009B007B617B697A681A601C37BD465DF8B3
:102BC000047B704780B485B000AF786039607B6863
:102BD00003F1C063FB60FB683A681A601437BD46B6
:102BE0005DF8047B704700BF80B485B000AF7860AB
:102BF00039607B6803F18063FB60FB683A681A60A8
:102C00001437BD465DF8047B704700BF80B584B0C3
:102C100000AFF860B9607A60F868B968FFF7E4FF60
:102C2000F8687968FFF7CEFF1037BD4680BD00BF5A
:102C300080B582B000AF03463960FB71FB79002B91
:102C40001DD0FB79012B17D0FB79022B11D0FB791A
:102C5000032B0BD0FB79042B06D0FB79052B01D17C
:102C6000FF230DE000230BE0002309E04FF47E4337
:102C700006E04FF47C6303E04FF4784300E03F2329
:102C80003A68134103F00103002B04D10B484FF4C1
:102C90002F71FEF7CFFAFA7913465B0013441B013C
:102CA0000C3303F1804303F52043184639680022B2
:102CB000FFF772FF0837BD4680BD00BF2C6E0000D5
:102CC00080B582B000AF03463960FB71FB79002B01
:102CD0001DD0FB79012B17D0FB79022B11D0FB798A
:102CE000032B0BD0FB79042B06D0FB79052B01D1EC
:102CF000FF230DE000230BE0002309E04FF47E43A7
:102D000006E04FF47C6303E04FF4784300E03F2398
:102D10003A68134103F00103002B04D10B4840F241
:102D2000EB21FEF787FAFA7913465B0013441B0187
:102D30000C3303F1804303F5204318463968012220
:102D4000FFF72AFF0837BD4680BD00BF2C6E00008C
:102D500080B584B000AF39600146F971BA717B71FA
:102D6000FB79002B1DD0FB79012B17D0FB79022BAF
:102D700011D0FB79032B0BD0FB79042B06D0FB7908
:102D8000052B01D1FF230DE000230BE0002309E018
:102D90004FF47E4306E04FF47C6303E04FF4784346
:102DA00000E03F233A68134103F00103002B03D1F5
:102DB0002348B021FEF73EFA3B68072B10D83B684A
:102DC0009B000F2202FA03F31A46F9793B689B0035
:102DD00001FA03F31B4811461A46FFF717FF12E0EA
:102DE0003B68083BFB60FB689B000F2202FA03F381
:102DF0001A46F979FB689B0001FA03F31248114661
:102E00001A46FFF703FFBB79104839681A46FFF7E7
:102E1000C3FE7B790E4839681A46FFF7BDFE0D4B9D
:102E20003A68012101FA02F2C3F824243B7E0A48E1
:102E300039681A46FFF7B0FE1037BD4680BD00BFA7
:102E4000846E000000A4004004A4004010A40040D0
:102E500014A4004000A0004028A4004080B584B025
:102E600000AFB9607B600346FB731346BB73FB7B0B
:102E7000002B1DD0FB7B012B17D0FB7B022B11D02D
:102E8000FB7B032B0BD0FB7B042B06D0FB7B052BA2
:102E900001D1FF230DE000230BE0002309E04FF4F4
:102EA0007E4306E04FF47C6303E04FF4784300E098
:102EB0003F23BA68134103F00103002B03D13148CB
:102EC000E721FEF7B7F9BB7B002B0DD07B68002B09
:102ED00005D0FB7B1846B968FFF7F2FE04E0FB7BE8
:102EE0001846B968FFF7A4FEBB68072B18D8FA7B11
:102EF00013465B0013441B01043303F1804303F5C5
:102F00002043BA6892000F2101FA02F21146B87B01
:102F1000BA68920000FA02F21846FFF777FE1DE049
:102F2000FA7B13465B0013441B01083303F1804313
:102F300003F52043BA6802F18042083A92000F215B
:102F400001FA02F21146B87BBA6802F18042083AEF
:102F5000920000FA02F21846FFF758FEBB7B002BE6
:102F60000DD17B68002B05D0FB7B1846B968FFF7B5
:102F7000A7FE04E0FB7B1846B968FFF759FE10373F
:102F8000BD4680BD846E000080B584B000AFF8609F
:102F9000B9607A60FB680B2B03D90A487321FEF7EE
:102FA00049F9094BBA6802F4FE417A6802F0070257
:102FB0000A4342F08041FA68103243F82210103779
:102FC000BD4680BD986E000000600E4080B487B0A2
:102FD00000AFF860B9607A60FB6803F10473DA004F
:102FE000BB6813449B007B617B697A681A601C375D
:102FF000BD465DF8047B704780B582B000AF786055
:1030000039607B68022B03DD17484F21FEF712F968
:103010003B685B791F2B03D913485221FEF70AF94D
:1030200012493B681B781A463B685B789B001A4341
:103030003B689B789B011A433B68DB781B011A4372
:103040003B681B79DB021A433B685B791B031A431D
:103050003B689B795B041A437B6804331B010B4478
:103060001A600837BD4680BDAC6E000000200440E9
:1030700080B582B000AF0346FB71FB7903480021A5
:103080001A46FFF7A3FF0837BD4680BD0020044065
:1030900080B483B000AF7860144B7A681278114620
:1030A0007A685278920011437A689278120111433B
:1030B0007A68D278520111437A6812791202114368
:1030C0007A685279120311437A689279D2031143D4
:1030D0007A68D279120411437A68127A52040A4348
:1030E0001A600C37BD465DF8047B70470020044031
:1030F00080B584B000AF78607B68002B03D11A489C
:103100003E21FEF797F8194B5B69DBB203F00F0322
:10311000DBB29B00FB73154B1B6903F0C0039B09DB
:10312000DAB2FB7B1343FB737B68FA7B9A700F4B1D
:103130001B69DBB203F03F03DAB27B685A700B4BBA
:103140009B69DBB223F00F03FB73084BDB6903F0D1
:10315000F0031B09DAB2FB7B1343FB737B68FA7B3A
:103160001A701037BD4680BDC06E0000D0FF0FE062
:1031700080B485B000AF786039607B6803F1C063CC
:10318000FB60FB683A681A601437BD465DF8047B43
:10319000704700BF80B485B000AF786039607B684D
:1031A00003F18063FB60FB683A681A601437BD4620
:1031B0005DF8047B704700BF80B584B000AFF86055
:1031C000B9607A60F868B968FFF7E4FFF868796871
:1031D000FFF7CEFF1037BD4680BD00BF00000000E6
:1031E000B0B586B000AFF860B9607A607B68002B3C
:1031F00004D12F4840F2E111FEF71CF8BB68002B08
:1032000003D12C48FEF76CFAB8607B685B001A4665
:103210004FF00003C7E90423BB681A464FF00003D0
:103220001D0245EA1265140220462946D7E9042307
:1032300001F064FB02460B46C7E90423D7E9040109
:103240006FF0FF024FF0FF3302EA000203EA0103CE
:10325000C7E90423D7E9040113A3D3E9002302EA51
:10326000000203EA010352EA030104D0104840F2CD
:103270000521FDF7DFFFD7E904010F4A4FF00003F6
:1032800002EA000203EA0103C7E90423FB6803F131
:1032900014023B69104608491A46FFF78DFF18379C
:1032A000BD46B0BDAFF30080070080FF0000000006
:1032B000D86E000040410500F8FF7F00AFF30080AA
:1032C00080B582B000AF786039607A68384B9A4236
:1032D00008D07A68374B9A4204D0374840F291219F
:1032E000FDF7A8FF786800F069F87B681A683B680A
:1032F0001B8A43F001039BB219463B689B7B002B62
:1033000002D04FF4806300E000230B431A437B6834
:103310001A607B681A683B681B7D002B02D04FF057
:10332000005300E000231A437B681A603B689B7CD3
:10333000002B07D03B68DB7C63F07F03DBB21A46CF
:103340007B689A653B681B7B43F480527B685A60BC
:103350003B685A683B689B68786811461A46FFF7D5
:103360003FFF3B685B7B002B02D07B681022DA605A
:103370003B689B7D1B0703F0E0423B68DB7D1B0540
:1033800003F4E0031A437B681A663B685B7D002BFD
:1033900005D07B681B6843F480327B681A603B6809
:1033A0001B781A467B68DA600837BD4680BD00BFCF
:1033B0000000014000040140D86E000080B582B0DA
:1033C00000AF78607A68204B9A4208D07A681F4B29
:1033D0009A4204D01E4840F27131FDF72BFF7B6802
:1033E00040F6AA62DA607B6800221A607B6841F2CC
:1033F00005025A607B6800229A607B6800225A614D
:103400007B680022DA647B68124A9A647B68002237
:103410005A677B6800229A677B680022DA677A68BD
:10342000094B9A4202D17B6800221A657B68002210
:103430009A657A68054B9A4202D17B680022DA6568
:103440000837BD4680BD00BF0000014000040140B8
:10345000D86E0000F9FF010080B483B000AF78603F
:103460000B46FB7000BF7B681B6903F04003002B19
:10347000F9D0FA787B685A630C37BD465DF8047B57
:10348000704700BF80B483B000AF78600B467B808C
:1034900000BF7B681B6903F04003002BF9D07A88DA
:1034A0007B68DA630C37BD465DF8047B704700BF6C
:1034B00080B483B000AF0346FB71084B97F9072037
:1034C0005209F97901F01F01012000FA01F143F8D6
:1034D00022100C37BD465DF8047B704700E100E028
:1034E00080B400AF054B054A126922F004021A614C
:1034F00030BFBD465DF8047B704700BF00ED00E0C3
:1035000080B483B000AF174B02225A60164B0222E0
:103510005A60144B01225A61134B5B6A7B60134B58
:103520001B78DBB21A46124B796843F822100F4B16
:103530001B78DBB21A460F4B53F822207B689A4265
:1035400007D20A4B1B78DBB21A460A4B796843F85C
:103550002210094B01221A700C37BD465DF8047B1E
:10356000704700BF008001400084014050090020E6
:10357000540900205C0900205109002080B485B066
:1035800000AF0346FB71FA790D4B53F82230FB6014
:10359000FA790B4B53F82230DB08FA68D31AFB6038
:1035A000FA79084B53F82220FB689A4201D2012392
:1035B00000E0002318461437BD465DF8047B7047D1
:1035C0005C0900205409002080B582B000AF03469A
:1035D000FB71FB794FF080401946FDF7CDFD0E4B96
:1035E00000225A620D4B00225A620D4B00221A70C3
:1035F000094B01225A60094B01225A6001E0FFF792
:103600006FFF074B1B78DBB283F00103DBB2002BAB
:10361000F5D10837BD4680BD0080014000840140DF
:103620005109002080B500AF4FF08040FDF7E4FD68
:103630000E4B00221A700EE00C4B1B78DBB20C4ACA
:10364000D35C1846FFF7C0FF084B1B78DBB2013391
:10365000DAB2064B1A70054B1B78DBB2012BEBD9A3
:103660004FF08040FDF7AAFD80BD00BF500900204B
:10367000EC6E0000B0B586B000AF214B3C461D4655
:103680000FCD0FC495E8030084E803001D48012115
:10369000FDF7BAFF1C480121FDF7B6FF1B480121C9
:1036A000FDF7B2FF1A480121FDF7AEFF19480121CD
:1036B000FDF7AAFF184B4FF010621A60164B0A2252
:1036C000DA61154B01229A61134B00225A62134BA7
:1036D000134A1A60114B4FF6FF72DA610F4B114A11
:1036E0001A67114B114A1A643B464FF08040194645
:1036F000FDF7E4FC0A20FFF7DBFE1837BD46B0BD3E
:10370000F06E0000404105000002040000120400B9
:1037100000420400003508000080014000840140A0
:103720000000010A0100002A00600E40000610009F
:1037300080B582B000AF114B7B60114B1B7883F0DA
:103740000103DBB2002B13D00D4B01221A700BE0EA
:103750007B681B68984738603B68002B01D03B684A
:1037600007E07B6804337B607B681B68002BEFD12C
:10377000002318460837BD4680BD00BF1C0000204E
:103780009009002080B584B000AF78603960114B9B
:103790001B7883F00103DBB2002B02D00E4BFB60E1
:1037A00012E07B68002B0DDC7B682C2202FB03F20D
:1037B0000A4B1344386819462C2201F0B9FB002348
:1037C000FB6001E0064BFB60FB6818461037BD4606
:1037D00080BD00BF90090020050011806409002011
:1037E0000200118080B584B000AF7860134B1B7865
:1037F00083F00103DBB2002B02D0114BFB6017E01A
:10380000104B1B68002B11DC0E4B1B68591C0D4A1A
:1038100011602C2202FB03F20B4B1344184679680B
:103820002C2201F085FB0023FB6001E0074BFB60CD
:10383000FB6818461037BD4680BD00BF90090020C8
:103840000500118094090020640900200100118006
:1038500080B58CB000AF00F059FA00F0EBF900F041
:103860006FFA022008210022002300F079FA0220DA
:1038700006210022002300F073FA03200E2100220B
:10388000002300F06DFA03200F210022002300F036
:1038900067FA03200D210022002300F061FA0320C3
:1038A0000D21802200F0A2FAF862FB6A002B01D001
:1038B000FB6A27E0154B3B6001233B7400237B74BC
:1038C00080237B608023FB607B68BB60104B7B6147
:1038D0000023BB610023FB610E4B3B620E4B7B62FE
:1038E0000E4BBB623B461846FFF77CFFF862FB6A53
:1038F000002B06D13B461846012100F021F800F0CC
:1039000037F8FB6A18463037BD4680BD086F0000A7
:1039100041390000F9390000B939000021390000AF
:1039200080B584B000AF78600023FB6000F0EEF952
:1039300000F080F9FB6818461037BD4680BD00BF17
:1039400080B582B000AF78600B46FB70FB78002B2F
:1039500004D003200F2100F025FA03E003200F21FB
:1039600000F032FA002318460837BD4680BD00BF7C
:1039700080B582B000AF03200E2100F013FA0620BC
:1039800000F0D0F90B4B1B7843F00403DBB2FB8053
:10399000BB1D1846022100F07FF9022000F0C2F999
:1039A00003200E2100F010FA002318460837BD4608
:1039B00080BD00BF9809002080B586B000AFF860D8
:1039C000B9607A603B60BB687B6100233B610AE0C1
:1039D00078690021102201F0B4FA7B6910337B6111
:1039E0003B6901333B613A693B689A42F0D300235B
:1039F00018461837BD4680BD80B588B000AFF86066
:103A0000B9607A603B60BB68BB61BB6A0133BB6273
:103A100003200E2100F0C6F9062000F083F9BB6AEE
:103A20009BB21B029BB243F001039BB2FB8207F1E6
:103A300016031846022100F02FF90023FB6126E04F
:103A4000B869102100F028F9BB691033BB61FB6A2B
:103A50005A1EFB699A4203D14FF6FF73FB820DE0B9
:103A6000BB6A9AB2FB699BB213449BB201339BB20F
:103A70001B029BB243F0FF039BB2FB8207F11603CC
:103A80001846022100F008F9FB690133FB61FA696D
:103A9000FB6A9A42D4D3022000F044F903200E219D
:103AA00000F092F9002318462037BD4680BD00BFC4
:103AB00080B487B000AFF860B9607A60FB6803F14A
:103AC0000473DA00BB6813449B007B617B697A68EE
:103AD0001A601C37BD465DF8047B704780B582B024
:103AE00000AF03463960FB71FB79002B1DD0FB79D9
:103AF000012B17D0FB79022B11D0FB79032B0BD0B4
:103B0000FB79042B06D0FB79052B01D1FF230DE0B7
:103B100000230BE0002309E04FF47E4306E04FF45E
:103B20007C6303E04FF4784300E03F233A6813419D
:103B300003F00103002B04D10B484FF42F71FDF764
:103B400079FBFA7913465B0013441B010C3303F134
:103B5000804303F52043184639680022FFF7A8FF89
:103B60000837BD4680BD00BF206F000080B582B021
:103B700000AF03463960FB71FB79002B1DD0FB7948
:103B8000012B17D0FB79022B11D0FB79032B0BD023
:103B9000FB79042B06D0FB79052B01D1FF230DE027
:103BA00000230BE0002309E04FF47E4306E04FF4CE
:103BB0007C6303E04FF4784300E03F233A6813410D
:103BC00003F00103002B04D10B4840F2EB21FDF779
:103BD00031FBFA7913465B0013441B010C3303F1EC
:103BE000804303F52043184639680122FFF760FF40
:103BF0000837BD4680BD00BF206F000080B582B091
:103C000000AF786039607B68022B04DD074840F222
:103C10004D11FDF70FFB064A7B6804331B0113446B
:103C20003A685A600837BD4680BD00BF786F000013
:103C300000200440B0B588B000AF0023FB61124BF8
:103C40003C1D1D460FCD0FC495E8030084E803001A
:103C50000E480121FDF7D8FC0D4BFB603B1D0D48C4
:103C60001946FFF72DFB0B4B0A225A67094B094AED
:103C7000926F22F01F2242F00B229A67FB691846CE
:103C80002037BD46B0BD00BFD06F00000032040039
:103C9000E06735000004014080B584B000AF786073
:103CA00039600023FB6020E03B68012B04D07B6877
:103CB00003F00103002B0CD07B681B7812481946D7
:103CC000FFF7CAFB3B68013B3B607B6801337B60CD
:103CD0000BE07B681B880C481946FFF7D3FB3B6859
:103CE000023B3B607B6802337B603B68002BDBD18F
:103CF00000BF054B1B6903F02003002BF9D0FB68C4
:103D000018461037BD4680BD0004014080B582B022
:103D100000AF00237B6000F05DF97B681846083730
:103D2000BD4680BD80B584B000AF78600023FB60E5
:103D3000786800F015FAFB6818461037BD4680BD5C
:103D400080B582B000AF00237B6004480121FDF7FD
:103D50005BFC7B6818460837BD4680BD002508001F
:103D600080B586B000AFF860B9603B601346FB7168
:103D700000237B61FB79002B0DD10423FB7400BF72
:103D8000FB68DAB2FB7C1046B9681A463B68FFF75D
:103D900065F87B6900E0024B18461837BD4680BDC8
:103DA0000100138080B584B000AF786039600023D3
:103DB000FB607B68DBB218463968FFF7D7FEFB680B
:103DC00018461037BD4680BD80B584B000AF78601E
:103DD00039600023FB607B68DBB218463968FFF767
:103DE0007DFEFB6818461037BD4680BD80B588B0A3
:103DF00000AFF860B9607A600023FB614FF4245390
:103E0000BB6102237B6113480121FDF7FDFB042008
:103E1000B9697A69FFF7B8F80F4B0F4A526922F077
:103E2000070242F004025A610B4B0B4A926842F0BF
:103E300010029A60FB68DBB21846B96804220023BE
:103E4000FFF70CF8786800F01BF8FB69184620377C
:103E5000BD4680BD0035080000600E4080B582B0D0
:103E600000AF786005480121FDF7CEFB786803219B
:103E7000FDF796FF0837BD4680BD00BF000508006E
:103E800080B588B000AF7860204A07F1140310684D
:103E9000516803C3127A1A7000233B761C48FFF75F
:103EA000DDFF1C480121FDF7AFFB00233B7500231C
:103EB0007B750123FB7507F114031846FFF7E8F83B
:103EC000154A07F10C03106818609188927999805F
:103ED0009A7101237B7307F10C0301201946FFF748
:103EE0008BF80C48FDF7FCFB02467B68B2FBF3F352
:103EF000013B01201946FFF781FE084B00229A6022
:103F00000120FFF7B5F82037BD4680BDE86F0000FF
:103F100005001E0090091000F46F0000002004400E
:103F200080B483B000AF0346FB71094B97F90720BB
:103F30005209F97901F01F01012000FA01F1603204
:103F400043F822100C37BD465DF8047B704700BF74
:103F500000E100E080B400AF72B6084B1B68B3F11B
:103F6000FF3F04D0054B1B685A1C044B1A60034BDF
:103F70001B681846BD465DF8047B70474C0900205D
:103F800080B483B000AF0C4B1B68002B0DD00A4BE4
:103F90001B685A1E084B1A60074B1B687B607B68C6
:103FA000002B00D162B67B6800E0002318460C3776
:103FB000BD465DF8047B70474C09002080B400AF1B
:103FC000034B9B681846BD465DF8047B704700BFF5
:103FD0000020044080B58AB000AF002387F8273066
:103FE000002387F82630002387F82530002387F840
:103FF0002430002387F82330534A3B1D1068516852
:1040000003C3127A1A700023FB610023BB614F4B7C
:10401000D3F8B03003F00103002B06D14C48012146
:10402000FDF7F2FA012387F826304A48FDF70CFE27
:104030000346FB75FB7D032B02D0012387F8243058
:10404000424BD3F8903003F04003002B02D1012300
:1040500087F823303F480321FDF7A2FE3E48FDF7D5
:10406000B7FA3861394BD3F8F03003F00103002B75
:1040700006D139480121FDF7C7FA012387F8253019
:10408000FFF768FF354B1B6803F00103002B15D0C9
:10409000324B1B68FB61314B5B6ABB612F4B0022CB
:1040A0001A602E4B00225A622C4B40F2FF721A62A9
:1040B0001D20FFF735FF012387F827300023BB7150
:1040C0000023FB7108233B723B1D1846FEF7E0FFFF
:1040D00000F062F8FFF754FF97F82730002B0AD062
:1040E0001D483969FDF782FA1C4BFA691A601B4BAF
:1040F000BA695A6202E00020FEF7BAFF97F825304D
:10410000002B03D014480021FDF77EFA97F82430E5
:10411000002B04D0FB7D0F481946FDF741FE97F8B0
:104120002330002B04D0012000210022FDF7ECFFFA
:1041300097F82630002B03D005480021FDF764FADC
:104140002837BD4680BD00BFFC6F000000400E4018
:104150000005080005001E00900910000020044022
:1041600080B483B000AF78607B680A49002B0CD024
:10417000013B88221202003253430A68D80AD20A4D
:104180005043800901D00138FDD80C37BD465DF899
:10419000047B70472400002080B584B000AF082362
:1041A000BB60324B4FF480521A601BE000F060F8A5
:1041B000786000BF00F05CF802467B689A42F9D054
:1041C00000F056F87860294B1B68184600F058F844
:1041D00000F04EF802467B68D31A7B607B68002BA8
:1041E00000D006E0214B1B685B00204A1360002BC7
:1041F000DCD11E4B1B685A081C4B1A601B4B1B68FA
:10420000FB6024E0194B1A68FB681A43174B1A60CD
:1042100000F02EF8786000BF00F02AF802467B68B4
:104220009A42F9D000F024F87860104B1B681846C9
:1042300000F026F800F01CF802467B689A4206D08F
:10424000FB68DA43094B1B681A40084B1A60BB68CD
:104250005A1EBA60002B05D0FB685B08FB60FB6848
:10426000002BCFD11037BD4680BD00BF24000020F9
:1042700080B500AFFFF7A2FE0346184680BD00BF21
:1042800080B483B000AF78607B68013BFDD80C3709
:10429000BD465DF8047B7047064880470649074ADB
:1042A000074B9A42BEBF51F8040B42F8040BF8E7E3
:1042B000FBF734FF954300001C7000000000002055
:1042C000A4000020FEE700BF80B582B000AF00F080
:1042D00027F878600A4BD3F808210A4B13401B0AD1
:1042E0003B603B6801337A68B2FBF3F37B60064BBB
:1042F0007A681A607B6818460837BD4680BD00BFE3
:1043000000400E4000FF0100B009002080B400AF63
:10431000024B1846BD465DF8047B7047005A6202A6
:1043200080B483B000AF114BD3F8943003F007038F
:10433000032B08D0042B02D0022B08D00BE00C4B2F
:104340001B687B600BE04FF400437B6007E0094B88
:104350001B687B6003E0084B1B687B6000BF7B68C9
:1043600018460C37BD465DF8047B704700400E4090
:104370002C000020280000203000002080B400AF76
:10438000034B1B681846BD465DF8047B704700BFB1
:104390002800002080B400AF054B054AD2F88820E1
:1043A00042F47002C3F88820BD465DF8047B704774
:1043B00000ED00E080B400AF4FF400431846BD4666
:1043C0005DF8047B704700BF80B400AF4FF47A7390
:1043D0001846BD465DF8047B704700BF80B400AF4F
:1043E000034B1B681846BD465DF8047B704700BF51
:1043F0002C00002080F0004002E000BF81F000416E
:1044000042001FBF5FEA410392EA030F7FEA226C7A
:104410007FEA236C6AD04FEA1262D2EB1363C1BF0A
:10442000D218414048404140B8BF5B42192B88BF79
:10443000704710F0004F40F4000020F07F4018BF9C
:10444000404211F0004F41F4000121F07F4118BFBC
:10445000494292EA030F3FD0A2F1010241FA03FC64
:1044600010EB0C00C3F1200301FA03F100F000434C
:1044700002D5494260EB4000B0F5000F13D3B0F114
:10448000807F06D340084FEA310102F10102FE2A83
:1044900051D2B1F1004F40EBC25008BF20F00100F3
:1044A00040EA03007047490040EB000010F4000FA1
:1044B000A2F10102EDD1B0FA80FCACF1080CB2EB34
:1044C0000C0200FA0CF0AABF00EBC2505242184393
:1044D000BCBFD0401843704792F0000F81F4000138
:1044E00006BF80F400000132013BB5E74FEA41030B
:1044F0007FEA226C18BF7FEA236C21D092EA030F77
:1045000004D092F0000F08BF0846704790EA010FF0
:104510001CBF0020704712F07F4F04D1400028BF1D
:1045200040F00040704712F100723CBF00F50000FF
:10453000704700F0004343F0FE4040F40000704735
:104540007FEA226216BF08467FEA236301464202E1
:1045500006BF5FEA412390EA010F40F480007047F4
:104560004FF0000304E000BF10F0004348BF40429A
:104570005FEA000C08BF704743F0964301464FF0D6
:1045800000001CE050EA010208BF70474FF0000332
:104590000AE000BF50EA010208BF704711F0004373
:1045A00002D5404261EB41015FEA010C02BF844643
:1045B0000146002043F0B64308BFA3F18053A3F5A2
:1045C0000003BCFA8CF2083AA3EBC25310DB01FAE9
:1045D00002FC634400FA02FCC2F12002BCF1004F6D
:1045E00020FA02F243EB020008BF20F001007047FE
:1045F00002F1200201FA02FCC2F1200250EA4C0052
:1046000021FA02F243EB020008BF20EADC70704797
:104610004FF0FF0C1CEAD0521EBF1CEAD15392EAA5
:104620000C0F93EA0C0F6FD01A4480EA010C400281
:1046300018BF5FEA41211ED04FF0006343EA5010DB
:1046400043EA5111A0FB01310CF00040B1F5000F1D
:104650003EBF490041EAD3715B0040EA010062F1CC
:104660007F02FD2A1DD8B3F1004F40EBC25008BFB6
:1046700020F00100704790F0000F0CF0004C08BFD4
:1046800049024CEA502040EA51207F3AC2BFD2F1A1
:10469000FF0340EAC250704740F400004FF00003AF
:1046A000013A5DDC12F1190FDCBF00F000407047E9
:1046B000C2F10002410021FA02F1C2F1200200FA27
:1046C00002FC5FEA310040F1000053EA4C0308BFEE
:1046D00020EADC70704792F0000F00F0004C02BF3F
:1046E000400010F4000F013AF9D040EA0C0093F0BA
:1046F000000F01F0004C02BF490011F4000F013B14
:10470000F9D041EA0C018FE70CEAD15392EA0C0F81
:1047100018BF93EA0C0F0AD030F0004C18BF31F0EC
:10472000004CD8D180EA010000F00040704790F0C2
:10473000000F17BF90F0004F084691F0000F91F066
:10474000004F14D092EA0C0F01D142020FD193EA2C
:104750000C0F03D14B0218BF084608D180EA0100B4
:1047600000F0004040F0FE4040F40000704740F090
:10477000FE4040F4400070474FF0FF0C1CEAD0525E
:104780001EBF1CEAD15392EA0C0F93EA0C0F69D0BA
:10479000A2EB030280EA010C49024FEA402037D025
:1047A0004FF0805343EA111143EA10130CF000401C
:1047B0008B4238BF5B0042F17D024FF4000C8B420C
:1047C00024BF5B1A40EA0C00B3EB510F24BFA3EBEC
:1047D000510340EA5C00B3EB910F24BFA3EB9103BC
:1047E00040EA9C00B3EBD10F24BFA3EBD10340EA16
:1047F000DC001B0118BF5FEA1C1CE0D1FD2A3FF65C
:1048000050AF8B4240EBC25008BF20F00100704710
:104810000CF0004C4CEA50207F32C2BFD2F1FF03B3
:1048200040EAC250704740F400004FF00003013AE4
:1048300037E792F0000F00F0004C02BF400010F488
:10484000000F013AF9D040EA0C0093F0000F01F09C
:10485000004C02BF490011F4000F013BF9D041EABE
:104860000C0195E70CEAD15392EA0C0F08D14202F1
:104870007FF47DAF93EA0C0F7FF470AF084676E7C4
:1048800093EA0C0F04D14B023FF44CAF08466EE79D
:1048900030F0004C18BF31F0004CCAD130F000426B
:1048A0007FF45CAF31F000437FF43CAF5FE700BFC3
:1048B0004FEA4002B2F1FE4F0FD34FF09E03B3EB2D
:1048C00012620DD94FEA002343F0004310F0004F6D
:1048D00023FA02F018BF404270474FF000007047C3
:1048E00012F1610F01D1420205D110F0004008BF62
:1048F0006FF0004070474FF0000070474BB942B96D
:10490000002908BF002802D04FF0FF31084600F010
:104910003BB882B0EC462DE9005000F01DF8DDF800
:1049200004E002B00CBC70472DE9704F089E14469D
:104930001D468046894600F029F804FB01F3A4FBDC
:1049400000AB00FB05329344B8EB0A0869EB0B0996
:10495000C6E90089BDE8708F2DE9704F089E1446A6
:104960001D468046894600F061F900FB05F5A0FB75
:1049700004AB04FB0154A344B8EB0A0869EB0B0930
:10498000C6E90089BDE8708F704700BF00292DE996
:10499000F00FC0F2A1800024002BC0F298801546D1
:1049A00006460F46002B3FD18A4258D9B2FA82F30D
:1049B0004BB1C3F1200201FA03F720FA02F29D4045
:1049C00000FA03F61743290CB7FBF1F201FB12774B
:1049D000A8B200FB02F34FEA164C4CEA0747BB4271
:1049E00009D97F1902F1FF3C80F00581BB4240F2FA
:1049F0000281023A2F44FF1AB7FBF1F301FB137156
:104A000000FB03F0B6B246EA0141884208D94919D1
:104A100003F1FF3780F0F180884240F2EE80023BE4
:104A200043EA0242002303E08B420AD900231A46DC
:104A30001046194614B1404261EB4101BDE8F00F48
:104A40007047B3FA83F8B8F1000F40F088808B42CA
:104A500002D3824200F2E28000230122E8E712B989
:104A60000123B3FBF2F5B5FA85F2002A3AD17F1B98
:104A7000280C1FFA85FC0123B7FBF0F100FB11772E
:104A80000CFB01F24FEA164848EA0747BA4207D939
:104A90007F1901F1FF3802D2BA4200F2C4804146C8
:104AA000BF1AB7FBF0F200FB12700CFB02FCB6B2AF
:104AB00046EA0040844507D9401902F1FF3702D287
:104AC000844500F2AE803A4642EA0142B0E7E44350
:104AD000524263EB430362E7404261EB41014FF016
:104AE000FF3459E79540C2F1200927FA09F126FA67
:104AF00009F99740280CB1FBF0F800FB18111FFAD8
:104B000085FC0CFB08F349EA07094FEA194747EA15
:104B100001418B4206FA02F608D9491908F1FF3221
:104B20007AD28B4278D9A8F102082944C91AB1FB7C
:104B3000F0F300FB13170CFB03F21FFA89F949EAA3
:104B40000747BA4207D97F1903F1FF3160D2BA4251
:104B50005ED9023B2F44BF1A43EA08438CE7C8F1F1
:104B6000200225FA02F103FA08FC27FA02F320FAE0
:104B700002F207FA08F741EA0C0C4FEA1C49B3FBB2
:104B8000F9F109FB11331FFA8CFA0AFB01FB1743F9
:104B90003A0C42EA03439B4505FA08F008D913EBA7
:104BA0000C0301F1FF3235D29B4533D902396344FE
:104BB000CBEB0303B3FBF9F209FB12330AFB02FA56
:104BC000BFB247EA0347BA4508D917EB0C0702F111
:104BD000FF331BD2BA4519D9023A674442EA01456C
:104BE000A5FB0001CAEB07078F424FF000030AD371
:104BF00005D02A461CE76246FDE63B4610E706FA6A
:104C000008F68642F5D26A1E002311E71A46E5E748
:104C10000B46A0E71146CBE7904687E7434642465E
:104C200006E7023A50E702392F4439E72DE9F00F41
:104C3000144605460E46002B43D18A4253D9B2FA98
:104C400082F757B1C7F1200620FA06F601FA07F3FA
:104C500002FA07F400FA07F51E43210CB6FBF1F245
:104C600001FB1266A0B200FB02F32F0C47EA0646D6
:104C7000B34209D9361902F1FF3780F0FD80B34203
:104C800040F2FA80023A2644F61AB6FBF1F301FB31
:104C9000136100FB03F0ADB245EA0141884208D937
:104CA000091903F1FF3680F0E980884240F2E6807E
:104CB000023B43EA0242002310461946BDE8F00FCA
:104CC00070478B424CD8B3FA83F6002E4FD18B42FB
:104CD00002D3824200F2DD80BDE8F00F0023012202
:104CE00010461946704712B90124B4FBF2F4B4FA25
:104CF00084F2002A40F08280091B260CA7B201230F
:104D0000B1FBF6F006FB101107FB00F24FEA154C61
:104D10004CEA01418A4207D9091900F1FF3C02D24D
:104D20008A4200F2C8806046891AB1FBF6F206FB9F
:104D3000121107FB02F7ADB245EA0145AF4208D9AF
:104D40002C1902F1FF3180F09B80A74240F298803D
:104D5000023A42EA004210461946BDE8F00F704799
:104D600000231A4610461946BDE8F00F7047C6F1F9
:104D7000200522FA05F703FA06F421FA05F301FAF1
:104D800006FB20FA05F53C434FEA1448B3FBF8FC58
:104D900008FB1C331FFA84F909FB0CFA45EA0B0BDC
:104DA0004FEA1B4545EA03439A4502FA06F204D945
:104DB0001B190CF1FF356FD3AC46CAEB0303B3FBF1
:104DC000F8F508FB153309FB05F91FFA8BFB4BEAD5
:104DD0000347B94504D93F1905F1FF3362D31D4696
:104DE00045EA0C4CACFB0223C9EB07079F424FF08E
:104DF00000054AD346D062462B465DE79440C2F197
:104E0000200921FA09FC914020FA09F9260CBCFB83
:104E1000F6F806FB18CCA7B207FB08F349EA01092C
:104E20004FEA194141EA0C4C634500FA02F509D9F1
:104E30001CEB040C08F1FF323BD2634539D9A8F1D1
:104E40000208A444C3EB0C0CBCFBF6F306FB13C135
:104E500007FB03F21FFA89F949EA01418A4207D99F
:104E6000091903F1FF3022D28A4220D9023B2144A2
:104E7000891A43EA084343E73A4605E7334618E709
:104E80000A4666E7B0409042B5D20CF1FF320023EB
:104E900012E7334632460FE79A458DD9ACF1020C42
:104EA00023448AE7B9459AD9023D274498E7034647
:104EB000DEE79046C6E70238214435E708B5074BE0
:104EC000044613B10021AFF30080054B1868836AD4
:104ED00003B19847204600F0FDF800BF0000000035
:104EE0000C70000070B50E4B0E4D0024ED1AAD1085
:104EF0001E46AC4204D056F8242090470134F8E70F
:104F000000F0EAF8084D094B0024ED1AAD101E46DA
:104F1000AC4204D056F8242090470134F8E770BD25
:104F200098000020980000209C000020980000209D
:104F300010B50023934203D0CC5CC4540133F9E78D
:104F400010BD02440346934202D003F8011BFAE766
:104F500070470000194B10B51C68A36BD3B918201B
:104F600000F032F843F20E33A06303804AF6CD33EB
:104F7000438041F2342383804EF26D63C3804DF64B
:104F8000EC630381052343810B23838101220023EA
:104F9000C0E90423A16B0A4C0A6948695443094BD0
:104FA00003FB0040A2FB03230132034443F100034F
:104FB000C1E9042323F0004010BD00BF940000208D
:104FC0002DF451582D7F954C024B0146186800F086
:104FD00003B800BF9400002070B5CD1C25F0030578
:104FE00008350C2D38BF0C25002D06463FDB8D42C1
:104FF0003DD3214B1C6818462146A1B10B685B1BB1
:105000000ED40B2B03D90B60CC18CD501FE08C4273
:1050100002D1626802601AE04B6863600C4616E0D9
:105020000C464968E9E7154C23681BB9304600F087
:1050300027F820602946304600F022F8431C01463C
:1050400015D0C41C24F0030484420AD1256004F165
:105050000B00231D20F00700C31A0BD05A42E25068
:1050600070BD3046611A00F00BF80130EED10C2310
:105070003360002070BD00BFA00900209C09002003
:1050800038B5064C002305460846236000F008F8B2
:10509000431C02D1236803B12B6038BDB409002042
:1050A000094A136863B118446946884202D81060FF
:1050B00018467047054B0C221A604FF0FF307047BE
:1050C000034B1360EFE700BFA4090020B4090020E0
:1050D000B8090020FEE700BFF8B500BFF8BC08BC67
:1050E0009E467047F8B500BFF8BC08BC9E467047A6
:1050F000FFFFFFFFFFFFFFFFFFFFFFFFFFFFFFFFC0
:10510000FFFFFFFFFFFFFFFFFFFFFFFFFFFFFFFFAF
:10511000FFFFFFFFFFFFFFFFFFFFFFFFFFFFFFFF9F
:10512000FFFFFFFFFFFFFFFFFFFFFFFFFFFFFFFF8F
:10513000FFFFFFFFFFFFFFFFFFFFFFFFFFFFFFC7B7
:10514000FFFFFFFFFFFFFFFFFFFFFFFFFFFFFFC7A7
:10515000FF81FFFFFFFF07FEFFFFFFFFFFFFFFC70E
:105160007F00FEFFC7FF033CFEFFFF3FFEFFFFC3C4
:105170001F00FCFFC7FF013CFEFFFF3FFEFFFFE3F8
:105180000F7EFEFFC7FFF03CFEFFFF3FFEFFFFE389
:105190000FFFFFE000FFF807F830CE00F8C11FE274
:1051A00087FF3FC000FFF80738004E00788007E017
:1051B000C7031F8000FFE00738000E00380007E03B
:1051C000E3010F8FE3FF811F1F1E071F1F1EC3E197
:1051D000E3818F87E1FF070F1F1F870F1F0FE3F189
:1051E000E39F07C0F1FF1F8E8F1FC78F0F80F1F164
:1051F000E38F07F0F1FF3F8E8F1FC78F0FE0F1F1B4
:10520000C38FC7FFF1FF3F8E8F0FC78F8FFFF1F066
:1052100083C7C7E7F03F1F868F03C7878FCF71F023
:1052200007C007E0C03F00070E80E3070EC001F88B
:105230000FC00FE0C13F800F1E80E30F1EC003F8B8
:105240003FF01FF8E3FFE01F1F8CE31F3FF0C7F89C
:10525000FFFFFFFFFFFFFFFFFFFFFFFFFFFFFFFF5E
:10526000FFFFFFFFFFFFFFFFFFFFFFFFFFFFFFFF4E
:10527000FFFFFFFFFFFFFFFFFFFFFFFFFFFFFFFF3E
:10528000FFFFFFFFFFFFFFFFFFFFFFFFFFFFFFFF2E
:10529000FFFFFFFFFFFBFFFFFFFFF7FDFFDBDFFE71
:1052A000FFFFFFFFFFFFFFFFFFFFF7FFFFFBFFFE1B
:1052B000E7786674819B337FCE811B058EDB59B8FE
:1052C000DBB6B5AD6D6BDBBEB56DEBB56DDBD6D6C4
:1052D000C336B4AD6DEBDBBEB76D9BB56DDBDED613
:1052E000FBB6B7AD6D6BDBBEB56D7DB56DDBD6D6F0
:1052F000C77674DC6D9B3B77CE6D8DB58DDBD9ECBD
:10530000FFFFBFDDFFFFFFFFFFFFFFFFEFFFFFEF2F
:10531000FFFF7FEEFFFFFFFFFFFFFFFFEFFFFFF746
:10532000FFFFFFFFFFFFFFFFFFFFFFFFFFFFFFFF8D
:10533000FFFFFFFFFFFFFFFFFFFFFFFFFFFFFFFF7D
:10534000FFFFFFFFFFFFFFFFFFFFFFFFFFFFFFFF6D
:10535000FFFFFFFFFFFFFFFFFFFFFFFFFFFFFFFF5D
:10536000FFFFFF0100C0F1FFC77F0000F0FFFFFF5C
:10537000FFFFFF0100C0F1FFC77F0000F0FFFFFF4C
:10538000FFFFFF0100C0F1FFC77F0000F0FFFFFF3C
:10539000FFFFFFF1FFC7FFFFFF71FCFFF1FFFFFF02
:1053A000FFFFFFF1FFC7FFFFFF71FCFFF1FFFFFFF2
:1053B000FFFFFFF1FFC7FFFFFF71FCFFF1FFFFFFE2
:1053C000FFFFFF7100C7F1FFF8711CC0F1FFFFFF85
:1053D000FFFFFF7100C7F1FFF8711CC0F1FFFFFF75
:1053E000FFFFFF7100C7F1FFF8711CC0F1FFFFFF65
:1053F000FFFFFF7100C70FFCC0711CC0F1FFFFFF72
:10540000FFFFFF7100C70FFCC0711CC0F1FFFFFF61
:10541000FFFFFF7100C70FFCC0711CC0F1FFFFFF51
:10542000FFFFFF7100C77FFCC77F1CC0F1FFFFFFBC
:10543000FFFFFF7100C77FFCC77F1CC0F1FFFFFFAC
:10544000FFFFFF7100C77FFCC77F1CC0F1FFFFFF9C
:10545000FFFFFFF1FFC7F11FC771FCFFF1FFFFFF67
:10546000FFFFFFF1FFC7F11FC771FCFFF1FFFFFF57
:10547000FFFFFFF1FFC7F11FC771FCFFF1FFFFFF47
:10548000FFFFFF0100C0711CC7710000F0FFFFFFAC
:10549000FFFFFF0100C0711CC7710000F0FFFFFF9C
:1054A000FFFFFF0100C0711CC7710000F0FFFFFF8C
:1054B000FFFFFFFFFFFF0FE007F0FFFFFFFFFFFF12
:1054C000FFFFFFFFFFFF0FE007F0FFFFFFFFFFFF02
:1054D000FFFFFFFFFFFF0FE007F0FFFFFFFFFFFFF2
:1054E000FFFFFF71FC07FEE3FFF1E3C7F1FFFFFFE2
:1054F000FFFFFF71FC07FEE3FFF1E3C7F1FFFFFFD2
:10550000FFFFFF71FC07FEE3FFF1E3C7F1FFFFFFC1
:10551000FFFFFF8F1FFF71FC070EE0F8F1FFFFFF99
:10552000FFFFFF8F1FFF71FC070EE0F8F1FFFFFF89
:10553000FFFFFF8F1FFF71FC070EE0F8F1FFFFFF79
:10554000FFFFFF81FF00F01F000EFCC7F1FFFFFF10
:10555000FFFFFF81FF00F01F000EFCC7F1FFFFFF00
:10556000FFFFFF81FF00F01F000EFCC7F1FFFFFFF0
:10557000FFFFFFF11FF8711CFF71FCF8F1FFFFFF47
:10558000FFFFFFF11FF8711CFF71FCF8F1FFFFFF37
:10559000FFFFFFF11FF8711CFF71FCF8F1FFFFFF27
:1055A000FFFFFF711C00801FFF71E0FFFFFFFFFF87
:1055B000FFFFFF711C00801FFF71E0FFFFFFFFFF77
:1055C000FFFFFF711C00801FFF71E0FFFFFFFFFF67
:1055D000FFFFFF0F1C387EFC3870E0FFF1FFFFFF7C
:1055E000FFFFFF0F1C387EFC3870E0FFF1FFFFFF6C
:1055F000FFFFFF0F1C387EFC3870E0FFF1FFFFFF5C
:10560000FFFFFF01FC070EE038FE1FF8F1FFFFFF70
:10561000FFFFFF01FC070EE038FE1FF8F1FFFFFF60
:10562000FFFFFF01FC070EE038FE1FF8F1FFFFFF50
:10563000FFFFFF7FE03F70FC3F001C38FEFFFFFFD5
:10564000FFFFFF7FE03F70FC3F001C38FEFFFFFFC5
:10565000FFFFFF7FE03F70FC3F001C38FEFFFFFFB5
:10566000FFFFFF8103C0F1FFFF0100F8F1FFFFFF23
:10567000FFFFFF8103C0F1FFFF0100F8F1FFFFFF13
:10568000FFFFFF8103C0F1FFFF0100F8F1FFFFFF03
:10569000FFFFFFFFFFFF8103F8F11FF8F1FFFFFF9E
:1056A000FFFFFFFFFFFF8103F8F11FF8F1FFFFFF8E
:1056B000FFFFFFFFFFFF8103F8F11FF8F1FFFFFF7E
:1056C000FFFFFF0100C08103C0711CFFF1FFFFFF5E
:1056D000FFFFFF0100C08103C0711CFFF1FFFFFF4E
:1056E000FFFFFF0100C08103C0711CFFF1FFFFFF3E
:1056F000FFFFFFF1FFC7FF1F07F01FF8F1FFFFFFDC
:10570000FFFFFFF1FFC7FF1F07F01FF8F1FFFFFFCB
:10571000FFFFFFF1FFC7FF1F07F01FF8F1FFFFFFBB
:10572000FFFFFF7100C78FE33F00003FFEFFFFFF59
:10573000FFFFFF7100C78FE33F00003FFEFFFFFF49
:10574000FFFFFF7100C78FE33F00003FFEFFFFFF39
:10575000FFFFFF7100C7FF033FF01F07FEFFFFFFC2
:10576000FFFFFF7100C7FF033FF01F07FEFFFFFFB2
:10577000FFFFFF7100C7FF033FF01F07FEFFFFFFA2
:10578000FFFFFF7100C701E007801F07F0FFFFFF69
:10579000FFFFFF7100C701E007801F07F0FFFFFF59
:1057A000FFFFFF7100C701E007801F07F0FFFFFF49
:1057B000FFFFFFF1FFC7FFFFC701E0F8FFFFFFFF9B
:1057C000FFFFFFF1FFC7FFFFC701E0F8FFFFFFFF8B
:1057D000FFFFFFF1FFC7FFFFC701E0F8FFFFFFFF7B
:1057E000FFFFFF0100C0F11FFF81FFF8F1FFFFFF86
:1057F000FFFFFF0100C0F11FFF81FFF8F1FFFFFF76
:10580000FFFFFF0100C0F11FFF81FFF8F1FFFFFF65
:10581000FFFFFFFFFFFFFFFFFFFFFFFFFFFFFFFF98
:10582000FFFFFFFFFFFFFFFFFFFFFFFFFFFFFFFF88
:10583000FFFFFFFFFFFFFFFFFFFFFFFFFFFFFFFF78
:10584000FFFFFFFFFFFFFFFFFFFFFFFFFFFFFFFF68
:10585000FFFFE1FFFFFFFFDFFF7FFFFFFEFFFFFF17
:10586000FFFFDDFFFFFFFFDFFF7FFFFFFEFFFFFF0B
:10587000FFFFDDCC888FD1DD6637E6C78EEEFFFFF8
:10588000FFFFE136F7BFAD5EDB7ADBB7BEF5FFFFAA
:10589000FFFFFD86CC8FAD1EC37ADBB78EF5FFFF11
:1058A000FFFFFDF6BBB7AD5EFB7ADBB7B6F5FFFFDA
:1058B000FFFFFD0EC4876DDFC67DE6C786FBFFFFD9
:1058C000FFFFFFFFFFFF7FFFFFFDFFF7FFFBFFFF76
:1058D000FFFFFFFFFFFFBFFFFFFEFFF7FFFDFFFF23
:1058E000FFFFFFFFFFFFFFFFFFFFFFFFFFFFFFFFC8
:1058F00000000000000000000000000000000000A8
:105900000000000000000000000000000000000097
:105910000000000000000000000000000000000087
:105920000000000000000000000000000000000077
:105930000000000000000000000000000000000067
:105940000000000000000000000000000000000057
:105950000000000000000000000000000000000047
:105960000000000000000000000000000000000037
:105970000000000000000000000000000000000027
:105980000000000000000000000000000000000017
:1059900000000000000000300000000000000000D7
:1059A000000000000000C001000000000010000026
:1059B0000000000000001E0000FC030000C000000A
:1059C0000000000000E00100F0FFFF000080030085
:1059D00000000000003C0000FFFFFF0F00000F0070
:1059E00000000000C00700F0FFFFFF3F00001F00A5
:1059F00000000000FC0000FCFFFFFF7F00003F00F4
:105A0000000000003F0000FFFFFFFF7F00007F005D
:105A1000000000E00F0080FFFFFFFF7F0080FF001D
:105A2000000000FC0300E0FFFFFFFF3F00E0FF017C
:105A3000000000FF0000F0FFFFFFFF1F00F0FF016C
:105A40000000C07F0000F8FFFFFFFF0700FCFF0120
:105A50000000F03F0000FCFFFFFFFFFF00FFFF0121
:105A60000000F81F0000FEFFFFFFFFFFFFFFFF0128
:105A70000000FE0F0000FEFFFFFFFFFFFFFFFF0122
:105A80000080FF070000FEFF010000F0FFFFFF01A4
:105A900000C0FF070000FE0300000000FFFFFF0042
:105AA00000E0FF0700003C0000000000F8FFFF00DE
:105AB00000F0FF070000F80100000000E0FF7F0099
:105AC00000F8FF070000C0FF7F00000080FF3F00DC
:105AD00000FCFF0F000000FEFF07000000FF1F009A
